:020000040800F2
:1000000090080020C1010008BD1400086B0E000814
:10001000B91400080902000871210008000000005E
:1000200000000000000000000000000005180008AB
:10003000650D000800000000611500087D1900082A
:10004000DB010008DB010008DB010008DB01000820
:10005000DB010008DB010008DB010008DB01000810
:10006000DB010008DB010008DB010008DB01000800
:10007000DB010008DB010008DB010008DB010008F0
:10008000DB010008DB010008DB010008DB010008E0
:100090000D020008DB010008DB010008DB0100089D
:1000A000DB010008DB010008DB010008DB010008C0
:1000B000DB010008DB010008DB010008DB010008B0
:1000C000DB010008DB010008DB010008DB010008A0
:1000D000DB010008B51B0008311D0008DB0100082A
:1000E000DB010008DB010008DB010008DB01000880
:1000F000DB010008DB010008DB010008DB01000870
:10010000DB010008DB010008DB010008DB0100085F
:10011000DB010008DB010008391A0008DB010008D8
:10012000DB010008DB010008DB010008DB0100083F
:10013000DB010008DB010008DB010008DB0100082F
:1001400025030008DB010008DB010008DB010008D3
:10015000DB010008DB010008DB010008DB0100080F
:10016000DB010008DB010008DB010008DB010008FF
:10017000DB010008DB010008DB010008DB010008EF
:10018000DB010008DB010008DB010008DB010008DF
:10019000DB010008DB010008DB010008DB010008CF
:1001A0000000000000000000DB010008DFF80CD0B8
:1001B00000F018F8004800472122000890080020AD
:1001C0000648804706480047FEE7FEE7FEE7FEE7F1
:1001D000FEE7FEE7FEE7FEE7FEE7FEE7811900081F
:1001E000AD010008064C074D06E0E06840F0010351
:1001F00094E8070098471034AC42F6D3FFF7DAFFD3
:100200002C2200084C22000800BFFEE700B585B094
:100210000221084800F07AF948B16A4600210548F1
:1002200000F097FA0221034800F098F800BF05B0EB
:1002300000BD00000064004000B589B0012102202B
:1002400001F016FA0121880601F022FA00208DF84B
:1002500022008DF8230002208DF821008DF8200067
:100260000003079007A92D4800F094FD4FF480503B
:10027000079007A9294800F08DFD09220D21274884
:1002800000F0D0FD09220C21244800F0CBFD002015
:100290008DF8160001208DF817008DF81800002049
:1002A0008DF819008DF81A008DF81B008DF81200DA
:1002B0008DF8130002208DF8140004208DF815002D
:1002C0000520ADF8100004A9154800F0B8F90E207B
:1002D0008DF80A0000208DF80B0001208DF80C002D
:1002E0000020ADF8080001208DF80D000020ADF8C9
:1002F0000000ADF80200ADF80400ADF80600684655
:1003000000F080F802220121402001F0D8F80122FB
:100310000221034800F08AF909B000BD0004024040
:100320000068004000B587B002210B4800F0EEF8ED
:1003300078B102AA0021084800F00BFA0698009054
:1003400002A80FC800F05AFF0221034800F006F887
:1003500000BF07B000BD000000680040B1F5007F9D
:100360003AD00FDC202928D006DC01291CD0042932
:100370001DD0082940D11DE0402921D0B1F5807F52
:100380003AD126E0B1F5004F31D006DCB1F5806FEF
:1003900025D0B1F5006F2FD124E0B1F5803F12D008
:1003A000B1F5003F28D111E0154A826025E008220E
:1003B000C26022E01022C2601FE0082202611CE03D
:1003C0001022026119E00822426016E01022426009
:1003D00013E00422426010E0042242600DE0042297
:1003E00042600AE0002282610422426005E00022AD
:1003F00082610422426000E000BF00BF704700003D
:100400000101010010B50021837A012202FA03F1F3
:100410003D4A126842F001023B4B1A603A4A1C32D4
:1004200012688A43384B1C331A60027BCAB9364AB9
:100430000C3212688A43344B0C331A604288C388EA
:1004400042EA0343304A4032847A42F83430028828
:10045000838842EA03432C4A4032847A02EBC40286
:100460005360027B012A19D1274A0C3212680A43D1
:10047000254B0C331A604288038842EA0343224A20
:100480004032847A42F83430C288838842EA034397
:100490001D4A4032847A02EBC4025360C27A3AB9F0
:1004A000194A121D12688A43174B1B1D1A6006E079
:1004B000154A121D12680A43134B1B1D1A6002894C
:1004C00032B9114A143212688A430F4B14331A603E
:1004D0000289012A06D10C4A143212680A430A4BD7
:1004E00014331A60427B012A06D1074A1C32126873
:1004F0000A43054B1C331A60034A126822F00102BA
:10050000014B1A6010BD00000066004070B5044643
:100510000D46002660692840002871D0B5F5807F1F
:100520005CD010DC082D35D006DC012D20D0022D4A
:1005300024D0042D72D127E0102D31D0202D35D0BC
:10054000402D6BD138E0B5F5004F60D009DCB5F532
:10055000007F49D0B5F5806F4CD0B5F5006F5DD107
:100560004FE0B5F5803F2DD0B5F5003F56D12FE0D7
:10057000A0682D4900F01AFA064651E0E068032110
:1005800000F014FA06464BE0E068082100F00EFA8D
:10059000064645E0E068102100F008FA06463FE014
:1005A0002069032100F002FA064639E0206908219B
:1005B00000F0FCF9064633E02069102100F0F6F95E
:1005C00006462DE06068082100F0F0F9064627E0B5
:1005D0006068102100F0EAF9064621E0A0690121D7
:1005E00000F0E4F906461BE0A069022100F0DEF904
:1005F000064615E0A069042100F0D8F906460FE090
:100600000FE0A069702100F0D1F9064608E06068AB
:10061000042100F0CBF9064602E0FFE7002600BF08
:1006200000E00026304670BD010101001AB14369A7
:100630000B43436102E043698B434361704730B52C
:10064000024600200023146824F002041460146899
:1006500044F00104146000E05B1C546804F00104E1
:100660001CB94FF6FF74A342F6D1546804F001049C
:100670000CB900206CE08C79012C04D1146844F092
:100680008004146003E0146824F080041460CC79C2
:10069000012C04D1146844F04004146003E0146891
:1006A00024F0400414600C7A012C04D1146844F046
:1006B0002004146003E0146824F0200414604C7AD1
:1006C000012C04D1146844F01004146003E0146891
:1006D00024F0100414608C7A012C04D1146844F0C6
:1006E0000804146003E0146824F008041460CC7A51
:1006F000012C04D1146844F00404146003E014686D
:1007000024F0040414608C78A407CD7844EA0564CE
:100710000D7944EA05444D7944EA05540D886D1E6F
:100720002C43D461146824F001041460002300E019
:100730005B1C546804F001041CB14FF6FF74A34223
:10074000F6D1546804F001040CB1002000E001204F
:1007500030BD10B500F5D87303EB01131B6803F02F
:1007600004031372137A53B900F5D87303EB011322
:100770001B6840F2FF7404EA5353136009E000F56C
:10078000D87303EB01131B686FF0604404EAD303D2
:10079000536000F5D87303EB01131B6803F00203E9
:1007A000537200F5D87303EB01135B6803F00F037A
:1007B000937200F5D87303EB01135B681B0AD374C3
:1007C00000F5D87303EB01139B68D37200F5D8735F
:1007D00003EB01139B681C0A147300F5D87303EB39
:1007E00001139B681C0C547300F5D87303EB0113C1
:1007F0009B681B0E937300F5D87303EB0113DB6842
:10080000D37300F5D87303EB0113DB681C0A14746F
:1008100000F5D87303EB0113DB681C0C547400F56E
:10082000D87303EB0113DB681B0E937421B9C36803
:1008300043F02003C36003E0036943F02003036136
:1008400010BDF0B585B007460C4615461E460CB9DE
:10085000009500E001958DF8084000208DF8090012
:1008600008208DF80A00002005E0325C0DF10B0134
:100870000A54411CC8B20828F7DB6946384600F024
:1008800002F805B0F0BD10B502460020936803F0F1
:100890008063B3F1806F00D110E0936803F00063D0
:1008A000B3F1006F01D1012008E0936803F0805399
:1008B000B3F1805F01D1022000E00420042874D04D
:1008C00002F5C07303EB00131B6803F0010402F58B
:1008D000C07303EB00131C600B7A7BB94B7A0C8856
:1008E00043EA445302F5C07404EB00142468234324
:1008F00002F5C07404EB0014236010E00B7A4C681E
:1009000043EAC4034C7A234302F5C07404EB001499
:100910002468234302F5C07404EB001423608B7A2F
:1009200003F00F038B7202F5C07303EB00135B68D7
:1009300023F00F0402F5C07303EB00135C6002F5B3
:10094000C07303EB00135B688C7A234302F5C07419
:1009500004EB001463608B7B1C064B7B44EA03446E
:100960000B7B44EA0323CC7A234302F5C07404EBE7
:100970000014A3608B7C1C064B7C44EA03440B7C74
:1009800044EA0323CC7B234302F5C07404EB001438
:10099000E36002F5C07303EB00131B6843F001042E
:1009A00002F5C07303EB00131C6010BD024600206B
:1009B00002EA01030BB1012000E00020704721B1E1
:1009C000026842F00102026003E0026822F00102C4
:1009D00002607047016821F001010160002101609F
:1009E00041608160C1600161212141614A498842C1
:1009F00004D13D21484A103A91608CE046491831B3
:100A0000884205D14FF47461434A103A916082E004
:100A100041493031884205D14FF474113E4A103AB1
:100A2000916078E03C494831884205D14FF07461CB
:100A3000394A103A91606EE037496031884204D1FA
:100A40003649354A103AD16065E0334978318842F9
:100A500004D13349304A103AD1605CE02E499031DC
:100A6000884204D12F492C4A103AD16053E02A49D8
:100A7000A831884205D14FF03D51274A103AD16044
:100A800049E02949884204D13D21274A083A1160AA
:100A900041E025491831884205D14FF47461224A5A
:100AA000083A116037E020493031884205D14FF4CF
:100AB00074111D4A083A11602DE01B4948318842E3
:100AC00005D14FF07461184A083A116023E01649C5
:100AD0006031884204D11149134A121F11601AE093
:100AE00011497831884204D10D490F4A121F116013
:100AF00011E00D499031884204D10A490A4A121F77
:100B0000116008E00849A831884204D14FF03D51F6
:100B1000054A121F11607047106002403D0000201E
:100B2000400F002000003D201064024001460020DC
:100B30000A6802F001020AB1012000E000207047BB
:100B40000146486880B2704710B500220268134B16
:100B50001A40CC680B6823434C6923438C692343B8
:100B6000CC6923430C6A23434C6A23438C6A234396
:100B70004C6B23438C6B23431A430260426922F07F
:100B80000702D1E90B3423431A4342610B694360E6
:100B90004B6883608B68C36010BD00003F801CF011
:100BA0004160704710B5044801F02AF81421034849
:100BB00001F078F810BD0000A08601009803002025
:100BC00010B5044604B910BD2078617840EA0120D0
:100BD000C0F30A00614908806078C010A17840EA3B
:100BE0004110C0F30A005D494880A0788011E17887
:100BF00040EA8100217940EA8120C0F30A00574988
:100C0000888020794010617940EAC110C0F30A0061
:100C10005249C88060790011800808726079C0F379
:100C200001104872A079E17940EA012000B24B49F5
:100C30008881207A617A40EA012001B24748C18167
:100C4000A07AE17A40EA012001B244480182217B86
:100C50008174617BC174A07BE17B40EA01203F4944
:100C60008882207C617C40EA0120C0F30A003B4975
:100C700048810846C08A401CC88208460088A0F502
:100C8000806000B2088008464088A0F5806000B20D
:100C9000488008468088A0F5806000B288800846B9
:100CA000C088A0F5806000B2C88008464089A0F5E1
:100CB000806000B248810846B0F90000052807DCD2
:100CC0000846B0F9000010F1050F01DB0020088094
:100CD0002248B0F90200052808DC2048B0F90200DB
:100CE00010F1050F02DB00201C4948801B48B0F9B9
:100CF0000400052808DC1948B0F9040010F1050FBC
:100D000002DB0020154988801448B0F90600052848
:100D100008DC1248B0F9060010F1050F02DB0020D4
:100D20000E49C8800D48B0F90A00052808DC0B48B8
:100D3000B0F90A0010F1050F02DB002007494881D5
:100D40000648007A064981F834000448417A04488C
:100D500080F8351000F030FD00BF34E7AC03002010
:100D6000C80300207047000010B5FFF71BFF4FF4C9
:100D7000E13001F0FFF94FF4E13000F0F3FF4FF400
:100D8000E13001F08DF83221014801F0DDF810BDAD
:100D90000F040020F0B50A4600210023002400BF04
:100DA0003DE0012505FA01F3156805EA03049C42BC
:100DB00034D105684F000326BE40B5430560157960
:100DC0004E00B5400668354305601579012D02D007
:100DD0001579022D16D185684F000326BE40B54314
:100DE000856055794E00B540866835438560456815
:100DF00001268E40B5434560456896798E40B6B26F
:100E000035434560C5684F000326BE40B543C56005
:100E1000D5794E00B540C6683543C560491C1029D8
:100E2000BFD3F0BDF0B5002300244D07ED0E02FA4C
:100E300005F3CE1000F1200555F826504E07F70EA9
:100E40000F26BE40B543CF1000F1200646F82750CC
:100E5000CE1000F1200555F8265045EA0304CE10C7
:100E600000F1200545F82640F0BD00BFFEE7000078
:100E7000DFED101AC0ED001ADFED0E1AC0ED011AF9
:100E8000DFED0C1AC0ED021ADFED0A1AC0ED031AED
:100E9000DFED081AC0ED041A80ED050AC0ED060A60
:100EA00080ED071A41628262DFED021AC0ED081A76
:100EB000704700000000000008B50146F0EE401A3F
:100EC000B0EE602AC1ED001A81ED012A91ED000A11
:100ED000D1ED010A30EE600A81ED020A91ED020ABD
:100EE000D1ED030A30EE600AD1ED050A20EE200AAA
:100EF000F0EE402A91ED060AD1ED020A20EE200A1A
:100F00008DED000A91ED020AD1ED030AB0EE001A50
:100F100001EE600AD1ED040A30EE200AD1ED070A95
:100F200020EE200AB0EE403AD1ED0A0AF8EE600A4F
:100F3000B0EE600A684601F038F991ED080ADDED7F
:100F4000000A72EEA00A70EE830A30EE200A81EDEC
:100F5000080AD1ED090AF8EE600AB0EE600A01F164
:100F6000200001F022F991ED030A81ED040A91EDD0
:100F7000020A81ED030A91ED080A08BD10B5FFF7DA
:100F8000F3FEFFF759F94FF4FA6001F025F900F08C
:100F900037FA4FF4E13001F0EDF842F20F715920C9
:100FA00000F022FD10BD00001FB5002413E104EB8A
:100FB000C400C0EB84108F4901EB800090F8D4008E
:100FC00001287CD18C48B0F9040000EE100AB8EE7C
:100FD000C00AF1EE040A20EE200ABDEEC00A10EEAF
:100FE000100A00B202A921F814008348B0F90600E3
:100FF00000EE100AB8EEC00AF1EE040A20EE200A54
:10100000BDEEC00A10EE100A00B22DF8140002A8BE
:1010100030F8140004EBC401C1EB8411754A02EBF3
:101020008101C8803DF9140004EBC401C1EB8411B7
:1010300002EB8101886004EBC401C1EB841132F83A
:10104000211001EE101AB8EE411AF0EE410A04EB3D
:10105000C401C1EB841102EB810191ED021AB8EEDB
:10106000C11AB0EE410A04EBC401C1EB841102EBDA
:10107000810101F1A800FFF71FFFBDEEC00A10EECD
:10108000100A00B204EBC401C1EB8411594A02EB0F
:101090008101488304EBC401C1EB841102EB81019F
:1010A000B1F9021001EE101AB8EEC11AF0EE410AC1
:1010B00004EBC401C1EB841102EB810100E089E083
:1010C000B1F9061001EE101AB8EEC11AB0EE410ADD
:1010D00004EBC401C1EB841102EB810101F17C003E
:1010E000FFF7EAFEBDEEC00A10EE100A00B204EBF4
:1010F000C401C1EB84113F4A02EB8101888304EBF8
:10110000C401C1EB841132F8211001EE101AB8EEBF
:10111000411AF0EE410A04EBC401C1EB841102EB69
:10112000810191ED021AB8EEC11AB0EE410A04EB4A
:10113000C401C1EB841102EB810101F1240000F034
:1011400035FABDEEC00A10EE100A00B204EBC4017D
:10115000C1EB8411274A02EB8101C88304EBC4016F
:10116000C1EB841102EB8101B1F9021001EE101AFA
:10117000B8EEC11AF0EE410A04EBC401C1EB8411D0
:1011800002EB8101B1F91E1001EE101AB8EEC11A7E
:10119000B0EE410A04EBC401C1EB841102EB810102
:1011A00001F1500000F002FABDEEC00A10EE100A84
:1011B00000B204EBC401C1EB84110E4A02EB8101C1
:1011C0000884002004EBC401C1EB841102EB81010F
:1011D00081F8D400641C042CFFF6E9AE054CB4F988
:1011E000AE32B4F9D221B4F9F610B4F91A0000F015
:1011F000DDF81FBD28000020AC0300200FB440F232
:1012000007220099914203D30099B1F5027F01D3DF
:1012100004B070470099A1F2072000EBC001C1EBB8
:101220008011604A32F8211000EBC002C2EB80123C
:101230005C4B03EB820291819DF80C109DF80B2012
:1012400041EA022100EBC002C2EB801223F8221017
:101250009DF80E209DF80D1042EA012109B200EB25
:10126000C002C2EB801203EB820251809DF8102075
:101270009DF80F1042EA012109B200EBC002C2EB57
:10128000801203EB8202918000EBC001C1EB801160
:101290001A4632F8211000EBC002C2EB801203EBB9
:1012A00082029289891A404A914210DA00EBC00109
:1012B000C1EB80111A4602EB8101898A491C09B2EF
:1012C00000EBC002C2EB801203EB8202918200EBC2
:1012D000C001C1EB8011334A02EB8101898900EB27
:1012E000C002C2EB80122F4B33F82220891A2E4AFB
:1012F000914210DA00EBC001C1EB80111A4602EBFB
:101300008101898A491E09B200EBC002C2EB80123A
:1013100003EB8202918200EBC001C1EB8011214AF4
:1013200032F8211000EBC002C2EB80121D4B03EB20
:101330008202928A4FF4005313FB021100EBC002A9
:10134000C2EB8012174B03EB8202116100EBC0016C
:10135000C1EB80111A4632F8211000EBC002C2EB3B
:10136000801203EB8202918100EBC001C1EB80117E
:101370001A4602EB8101B1F8D610491C00EBC002FD
:10138000C2EB801203EB8202A2F8D610012100EB1F
:10139000C002C2EB801203EB820282F8D41000BFBD
:1013A00036E700002800002090E8FFFF2DE9FC410F
:1013B00007460C4615461E46380A8DF80000F8B25E
:1013C0008DF80100200A8DF80200E0B28DF80300CC
:1013D000280A8DF80400E8B28DF80500300A8DF86F
:1013E0000600F0B28DF807006B4640F2FF120021B4
:1013F0000248FFF726FABDE8FC81000000680040C3
:1014000010B5002450E004EBC401C1EB8411284A5C
:1014100002EB810101F124004FF47A72D1009FEDBB
:10142000251ADFED240A9FED230A00F09BF804EB58
:10143000C401C1EB84111E4A02EB810101F150008D
:101440004FF47A72D1009FED1B1ADFED1A0A9FED5F
:10145000190A00F087F804EBC401C1EB8411144AA7
:1014600002EB810101F1A8004FF47A72D1009FEDE7
:10147000111ADFED100A9FED0F0AFFF7F9FC04EBDC
:10148000C401C1EB84110A4A02EB810101F17C0025
:101490004FF47A72D1009FED071ADFED060A9FED37
:1014A000050AFFF7E5FC641C042CACDB10BD000052
:1014B000280000200000000000BFFEE77047F8B5DC
:1014C00006460C461546F0B28DF80000E0B28DF8E5
:1014D0000100E8B28DF8020001208DF80300684693
:1014E00000F002F8F8BD000070B5002100230F22C3
:1014F000C4781CB3174C246804F4E064C4F5E064B9
:10150000C4F30721C1F10404E3B20A4144789C40CA
:10151000E1B28478144021430C07210E0E4C05786B
:101520006155047804F01F050124AC4005786D1165
:10153000AD0005F1E025C5F8004109E0047804F0AC
:101540001F050124AC40054D0678761145F826406C
:1015500070BD00000CED00E000E400E080E100E080
:1015600070470000DFED101AC0ED001ADFED0E1A13
:10157000C0ED011A41628262DFED0B1AC0ED021A62
:10158000DFED091AC0ED031ADFED071AC0ED041AEA
:1015900080ED050AC0ED060A80ED071ADFED021A9C
:1015A000C0ED081A704700000000000008B50146B1
:1015B000F0EE401AB0EE602AC1ED001A81ED012A6A
:1015C00091ED000AD1ED010A30EE600A81ED020AC8
:1015D00091ED040AD1ED020A30EE200A81ED040AF1
:1015E00091ED050AD1ED020A20EE200AF0EE402A24
:1015F00091ED060AD1ED040A20EE200A8DED000AD5
:1016000091ED020AD1ED030A30EE600AD1ED070A2E
:1016100020EE200AB0EE403A9DED000ABDEEC00A71
:10162000124880ED000AD1ED0A0AF8EE600AB0EE29
:10163000600A684600F0B9FD9DED000A32EE800AAE
:1016400030EE030A81ED080AD1ED090AF8EE600ACE
:10165000B0EE600A01F1200000F0A7FD91ED020A52
:1016600081ED030A91ED080A08BD0000000000208A
:1016700029B1064A12680243044B1A6004E0034A87
:1016800012688243014B1A607047000030380240F4
:1016900029B1064A12680243044B1A6004E0034A67
:1016A00012688243014B1A607047000040380240C4
:1016B00029B1064A12680243044B1A6004E0034A47
:1016C00012688243014B1A607047000044380240A0
:1016D000F0B5002100220024022500260223324F0B
:1016E0003F6807F00C0121B1042905D0082937D142
:1016F00005E02E4F076036E02D4F076033E02A4F9C
:101700003F1F3F68C7F38056274F3F1F3F6807F0D2
:101710003F036EB1264FB7FBF3F7DFF88CC0ACF197
:10172000040CDCF800C0CCF3881C07FB0CF40CE0C4
:101730001E4FB7FBF3F7DFF870C0ACF1040CDCF818
:1017400000C0CCF3881C07FB0CF4174F3F1F3F6809
:10175000C7F301477F1C7D00B4FBF5F7076002E08B
:10176000124F076000BF00BF0F4F3F6807F0F00146
:101770000909104F7A5C0768D74047600A4F3F68F5
:1017800007F4E051890A0B4F7A5C4768D7408760BD
:10179000054F3F6807F46041490B064F7A5C476884
:1017A000D740C760F0BD0000083802400024F400B4
:1017B000001BB7000400002010B51148007A012872
:1017C00004D0022819D0032818D106E000231A46B5
:1017D00019461846FFF7EAFD10E00948407A01284B
:1017E00004D0022806D0032805D100E003E0FFF76B
:1017F000DBFB00E000BF00BF00E000BF00BF10BD8A
:10180000AC030020704700000CB500200190009050
:101810004148006840F480303F49086000BF3E48BE
:10182000006800F4003000900198401C019000987E
:1018300018B90198B0F5A04FF1D13748006800F40D
:10184000003010B10120009001E0002000900098CD
:10185000012860D130484030006840F080502E4967
:10186000403108602D48006840F440402B49086032
:10187000294808300068284908310860084600688F
:1018800040F4004008600846006840F4A05008603A
:101890002348091F0860081F006840F08070091F76
:1018A000086000BF1C48006800F000700028F9D0F4
:1018B0001A48006840F480301849086000BF174893
:1018C000406800F480300028F9D01448006840F4E3
:1018D00000301249086000BF1048406800F4003032
:1018E0000028F9D040F205700E4908600A48083017
:1018F000006820F0030008490831086008460068C5
:1019000040F00200086000BF03480830006800F0A3
:101910000C000828F8D10CBD0038024000700040CF
:101920000C5A4007003C024030B50146481EB0F159
:10193000807F01D3012030BD481E4FF0E02250616E
:1019400050170F22002807DA13071D0E094B00F06D
:101950000F04241F1D5503E013071C0E064B1C54D7
:1019600000BF00204FF0E0229061072010610020AE
:10197000E1E7000018ED00E000E400E0704700003F
:1019800010B51548006840F470001349086013480A
:10199000006840F001001149086000200F4908313B
:1019A00008600E4800680E4908400C4908600D4860
:1019B000091D0860081F006820F48020091F0860C6
:1019C000002006490C310860FFF71EFF4FF0006051
:1019D00001498039086010BD88ED00E00038024000
:1019E000FFFFF6FE103000243EB505460C460121EF
:1019F0001020FFF74DFEADF8005001940020ADF827
:101A00000800ADF8020069460A4800F085F8012197
:101A1000084800F04BF80121064800F056F8012272
:101A20001146044800F06EF8012200213620FFF72D
:101A300046FD3EBD0010004010B50121184800F0E1
:101A400050F858B304EBC401C1EB8411154A02EB02
:101A5000810101F124004FF47A72D1009FED121A36
:101A6000DFED110A9FED100AFFF77CFD04EBC401C6
:101A7000C1EB84110B4A02EB810101F150004FF4DC
:101A80007A72D1009FED081ADFED070A9FED060A72
:101A9000FFF768FD0121024800F014F810BD0000B6
:101AA00000100040280000200000000021B1028842
:101AB00042F08002028004E002884FF67F731A40F1
:101AC00002807047CA430282704721B1028842F007
:101AD0000102028004E002884FF6FE731A40028081
:101AE000704730B50246002000230024158A05EA1D
:101AF0000103958905EA010413B10CB1012000E04E
:101B0000002030BD1AB183890B43838102E08389B1
:101B10008B4383817047000000220288184B984253
:101B20000ED0184B98420BD0B0F1804F08D0164B16
:101B3000984205D0154B984202D0154B984204D1DB
:101B40004FF68F731A404B881A43124B984207D0B6
:101B5000114B984204D04FF6FF431A400B891A43A9
:101B600002804B68C3620B880385054B984202D004
:101B7000044B984201D18B7A0386012383827047FC
:101B80000000014000040140000400400008004043
:101B9000000C0040001000400014004010B5044844
:101BA000407B012802D1322000F016FB10BD00005E
:101BB0007804002010B540F224410E4800F01FFACE
:101BC000B8B100210C48FEF7FAFE0B48FEF7B8FF4B
:101BD000022802D10948FEF7F3FF14210648FEF758
:101BE000DFFF01210448FEF7EAFE02488088014831
:101BF000008810BD0010014040640240980300209E
:101C000010B586B0044601210220FFF731FD012105
:101C10001020FFF74DFD00208DF8160001208DF8F3
:101C2000170002208DF815008DF814004020049054
:101C300004A91A48FFF7AEF88020049004A91748B9
:101C4000FFF7A8F8072206211448FFF7EBF8072250
:101C500011461248FFF7E6F800940020ADF80400A2
:101C6000ADF80600ADF80800ADF80C000C20ADF89A
:101C70000A0069460A4800F011FA022200212520D4
:101C8000FFF71DFC012240F22441054800F0E1F974
:101C90000121034800F09EF906B010BD0004024087
:101CA0000010014030B58FB004460D460121880573
:101CB000FFF7DEFC1C48FEF78DFE00BF1A48FEF75A
:101CC00035FF0028FAD14FF00060009017480190CE
:101CD000029400200390049505904FF480600690D4
:101CE0000020079008904FF48070099040020A90FD
:101CF00000200B900C900D900E9069460A48FEF75C
:101D000023FF01210848FEF75AFE00BF0648FEF7F0
:101D10000DFF0128FAD1012240210448001F00F0E4
:101D200065F90FB030BD000040640240041001406E
:101D300010B540F22441094800F061F960B100217A
:101D40000748FEF73CFE01210548FEF738FE034830
:101D5000001D00880148008810BD000000440040BC
:101D60008860024010B586B0044601210820FFF7C4
:101D70007FFC01214804FFF78BFC00208DF8160042
:101D800001208DF8170002208DF815008DF8140041
:101D90002020049004A91D48FEF7FCFF4020049079
:101DA00004A91A48FEF7F6FF072205211748FFF796
:101DB00039F8072206211548FFF734F8009400206F
:101DC000ADF80400ADF80600ADF80800ADF80C0061
:101DD0000C20ADF80A0069460D4800F05FF90322B7
:101DE00000212620FFF76BFB012240F22551084815
:101DF00000F02FF9012240F22441054800F029F9B2
:101E00000121034800F0E6F806B010BD000C0240C6
:101E10000044004030B58FB004460D46012148050E
:101E2000FFF726FC1C48FEF7D5FD00BF1A48FEF759
:101E30007DFE0028FAD14FF0006000901748019015
:101E4000029400200390049505904FF48060069062
:101E50000020079008904FF4807009904FF44030B4
:101E60000A9000200B900C900D900E9069460A4845
:101E7000FEF76AFE01210848FEF7A1FD00BF0648F3
:101E8000FEF754FE0128FAD1012240210348001F29
:101E900000F0ACF80FB030BD886002400444004050
:101EA00010B586B0044601214020FFF7E1FB012177
:101EB0002020FFF7FDFB00208DF8160001208DF893
:101EC000170002208DF815008DF8140040030490CF
:101ED00004A91B48FEF75EFF4FF40070049004A9AC
:101EE0001748FEF757FF08220E211548FEF79AFF04
:101EF000082209211248FEF795FF00940020ADF852
:101F00000400ADF80600ADF80800ADF80C000C2098
:101F1000ADF80A0069460B4800F0C0F80322002122
:101F20004720FFF7CCFA012240F22441054800F097
:101F300090F80121034800F04DF806B010BD0000F4
:101F4000001802400014014030B58FB004460D4621
:101F500001218805FFF78CFB1C48FEF73BFD00BF05
:101F60001A48FEF7E3FD0028FAD14FF020600090F8
:101F700017480190029400200390049505904FF4B7
:101F8000806006900020079008904FF480700990C0
:101F900000020A9000200B900C900D900E90694664
:101FA0000A48FEF7D1FD01210848FEF708FD00BFF1
:101FB0000648FEF7BBFD0128FAD101224021044862
:101FC000001F00F013F80FB030BD0000286402407D
:101FD0000414014021B1828942F40052828104E05C
:101FE00082894DF6FF731A40828170471AB1838A45
:101FF0000B43838202E0838A8B438382704770B5F0
:102000000246002400230025002040F66A16B14253
:1020100000D100BFC1F3421501F01F03012606FAEB
:1020200003F3012D02D19689334006E0022D02D13F
:10203000168A334001E0968A33400C12012606FAD4
:1020400004F41688344013B10CB1012000E00020E4
:1020500070BDF0B50346002400260025002040F6A0
:102060006A17B94200D100BF1846C1F3421401F00B
:102070001F06012707FA06F5012C01D10C3004E0F8
:10208000022C01D1103000E014301AB107682F4340
:10209000076002E00768AF430760F0BD2DE9FF4726
:1020A00005460E460024A14600BFA046B08900B1F7
:1020B00000BF2C8A24F44054F08804432C82AC895D
:1020C00041F20C608443B088318908437189084328
:1020D0000443AC81AC8A24F44074B0890443AC82DC
:1020E0006846FFF7F5FA2048854202D01F4885422E
:1020F00002D1DDF80C9001E0DDF80890A88900F429
:10210000004040B109EBC90000EB091031684900FB
:10211000B0FBF1F707E009EBC90000EB09103168EB
:102120008900B0FBF1F76420B7FBF0F0040120094F
:10213000642101FB1078A88900F4004040B13220EE
:1021400000EBC800B0FBF1F000F00700044308E02A
:10215000322000EB08106421B0FBF1F000F00F001A
:1021600004432C81BDE8FF870010014000140140AA
:1021700000BFFEE710B504462046FFF7F3FD32210D
:102180000148FFF747FE10BD4404002002E008C8E4
:10219000121F08C1002AFAD170477047002001E0E1
:1021A00001C1121F002AFBD17047D0ED000AF4EEE6
:1021B000C00AF1EE10FA01DD80ED000AD0ED000A50
:1021C000B1EE401AF4EEC10AF1EE10FA03D2F1EECC
:1021D000400AC0ED000A704770B504460F48006819
:1021E0004FF47A71B0FBF1F52846FFF79DFB002014
:1021F00008E000BF4FF0E021096901F480310029B7
:10220000F8D0401CA042F4D34FF0E020006920F049
:1022100001004FF0E021086170BD000014000020B3
:10222000FEF7ACFE01E0FFF7B9FCFCE74C2200082A
:1022300000000020280000008C2100087422000803
:1022400028000020680800009C2100080000000011
:10225000000000000102030401020304060708094C
:102260000095BA0A0000000000000000010203040B
:04227000060708094C
:04000005080001C12D
:00000001FF
